:020000040000FA
:06000000E5EF12F0120012
:020006001200E6
:0800080007EF00F01200DACF4F
:10001000E4FFE2CFDAFFE9CFE4FFEACFE4FFF6CF77
:10002000E4FFF7CFE4FFF5CFE4FFF3CFE4FFF4CF35
:10003000E4FFFACFE4FF00EE00F0140EE80403E35F
:10004000EECFE4FFFBD700EE14F0120EE80403E35A
:10005000EECFE4FFFBD7E652D9CFE6FFE1CFD9FFE1
:10006000170EE126150EDB6A160EDB6A000160052D
:1000700003E0020E605D04E161C0E6FF010E06D000
:10008000030E605D08E161C0E6FF020EE66EB4ECAF
:100090000DF0E552E55200016351632B630801E066
:1000A000B6D0636B64C026F065C027F0642B000EE9
:1000B0006523100E261806E10E0E271803E1646B67
:1000C000656B662B605104E1320E626F010E606F4A
:1000D0002C0E641907E1010E651904E11E0E626F12
:1000E000020E11D0580E641907E1020E651904E1E1
:1000F0004E0E626F030E07D0840E641905E1030EE5
:10010000651902E1040E606F040E605D6DE0050E7E
:10011000E66E82EC0FF0E55204C028F005C029F02D
:1001200006C02AF007C02BF004C005F029C006F075
:100130002AC007F02BC008F00BEC0CF006C026F02C
:1001400007C027F006C0E6FF07C0E6FFE66A82ECBC
:100150000FF0E55204C02CF005C02DF006C02EF0C3
:1001600007C02FF004C0E6FF05C0E6FF06C0E6FFAB
:1001700007C0E6FF7DEC07F0306E060EE15E305002
:10018000150EF3CFDBFF160EF4CFDBFF62C0E6FFE8
:10019000150EDBCFE6FF02EC0EF0E552E552000152
:1001A000616F010EE66E7FD800016051E66EE66A6F
:1001B000F30E266E200E7DD8020E75D80001615117
:1001C000E66EE66ADD0E266E200E73D8030E6BD83F
:1001D000150EDBCFE6FF160EDBCFE6FFC70E266E51
:1001E000200E47D8070E12D0010EE66EEAEC0EF094
:1001F000E552100EE66E9CEC12F0E552010EE66E32
:1002000052D8B10E266E200E34D8050E41D8040EF9
:100210000001605D01E0F090170EE15C02E2E16A2E
:10022000E552E16EE552E7CFD9FFE55200EE25F049
:10023000120EE80403E3E5CFEDFFFBD700EE13F069
:10024000140EE80403E3E5CFEDFFFBD7E5CFFAFF9B
:10025000E5CFF4FFE5CFF3FFE5CFF5FFE5CFF7FFFF
:10026000E5CFF6FFE5CFEAFFE5CFE9FFE5CFDAFF1F
:100270001100276E286A26C0E6FFE66E28C0E6FF5A
:10028000D9CFE6FFDACFE6FF0EEC11F0296E1200AF
:10029000E15E2950D9CFE6FFDACFE6FF49EC0EF058
:1002A000E552E5521200E66E61EC0EF0E552E552C1
:0E02B0001200DFDF070EECDF010EE66E12001B
:0202BE0002003C
:1002C0003B2600006000000007000000322600000E
:0802D0000A0F00000900000004
:0802D800A8EC06F0FB0EDBCFE1
:1002E000F3FFDB06F35000090AE0F6EC06F0FA0E25
:1002F00061EC07F0F3E1151CF1E1010E01D0000EF5
:10030000D7EF06F0A8EC06F03B0EE12402E3E1682B
:10031000E652E16E010EDB6A020EDB6AF90EDBCFFC
:10032000F6FFFA0EDBCFF7FFFB0EDBCFF8FF08007E
:10033000F550DF6EDF5002E1FBEF05F0250EDF5CCC
:1003400002E0EEEF05F0030EDB6A040EDB6A050E39
:10035000DB6A060EDB6A070EDB6A10EC06F02D0E78
:10036000DF5C0CE02B0EDF5C09E0200EDF5C06E0BA
:10037000230EDF5C03E0300EDF5C1AE1DF50300A51
:1003800014E0130A0FE0030A0AE00B0A05E0060A6C
:10039000E4E1030EDB80E1D7030EDB82DED7030E40
:1003A000DB84DBD7030EDB86D8D7030EDB88D5D7FB
:1003B0002A0EDF5C1BE10CEC06F05AEC06F010E0B4
:1003C000030EDB8006680768130EDBCF0BF0140EFC
:1003D000DBCF0CF0C0EC0CF0040E04C0DBFF03D04C
:1003E000130E43EC06F010EC06F00BD0090EDB6A9E
:1003F000B1EC06F003E025EC07F0FAD7090E43EC68
:1004000006F0030EDBB0DB982E0EDF5C1BE110EC78
:1004100006F02A0EDF5C0BE10CEC06F05AEC06F05D
:1004200003E1130E95EC06F010EC06F00BD0090E6C
:10043000DB6AB1EC06F003E025EC07F0FAD7090E11
:1004400095EC06F0680EDF5C07E110EC06F0680E34
:10045000DF5C1DE1030E18D0740EDF5C17E07A0E2E
:10046000DF5C14E0480EDF5C06E0540EDF5C03E066
:100470005A0EDF5C02E1020E07D06C0EDF5C03E077
:100480006A0EDF5C04E1010EE8EC06F0C9DBDF5028
:100490006E0A01E17FD31E0A01E192D1200A01E137
:1004A0008FD13F0A01E149D11A0A01E146D10D0A73
:1004B00001E143D1200A01E140D13A0A01E13DD1F5
:1004C000200A01E13AD1260A01E135D10D0A01E104
:1004D00032D11A0A01E1D9D0200A4AE0300A1FE0DD
:1004E000460A0EE0250A01E083D3D950F90FE96EE0
:1004F000FF0EDA20EA6E010EEE5E000EEE5AEE5AA4
:10050000F6EC06F0250EE66E95DB03E1151C01E125
:1005100069D3F2EC06F001E26BD3DB2A69D3080E53
:10052000DB6A040EDB50010806E2040EDB04BAECC1
:1005300006F0DB508BDB080EDB5009E0030EDB50CE
:10054000010B05E172DB01E04DD3080EDB6A64DBD1
:10055000EFCFDFFF6AEC07F003E1151C01E142D3A6
:10056000F2EC06F001E3DB2A60DB01E141D33AD390
:10057000070EDB5002080FE136EC07F0030EFDEC2E
:1005800006F00E0EEECFDBFF0F0EEECFDBFF100EF0
:10059000EECFDBFF20D0F70EDBCF17F0F80EDBCF6E
:1005A00018F0020E175E000E185AF70E17C0DBFF88
:1005B000F80E18C0DBFF17C0E9FF18C0EAFFEDEC2A
:1005C00006F0166A0E0E14C0DBFF0F0E15C0DBFF1F
:1005D000100E16C0DBFF0E0EDBCFE6FF0F0EDBCFDB
:1005E000E6FF100EDBCFE6FF3BEC12F0E552E552E2
:1005F000E552130E05C0DBFF140E06C0DBFF060E2E
:10060000DB5005E0130E31EC07F001E26ADB55EC3C
:1006100007F002E2130E37DB18EC07F006E0040ED9
:1006200031EC07F002E2050E2EDB030EDBB005D045
:10063000FCDA01E0D7D2080EDB6A090EDB6A0E0E87
:10064000DBCFF6FF0F0EDBCFF7FF100EDBCFF8FF8F
:100650000800F550DF6EDF5014E05BEC07F011E2AC
:100660006AEC07F003E1151C01E1BCD2BBDB01E33E
:10067000DB2A090EDB2AD9500E0FE96E000ECBDB08
:10068000E7D7D3DA01E1B4D2ADD2C6DA110EEECF9C
:10069000DBFF120EEDCFDBFF110EDBCFE6FF120EFC
:1006A000DBCFE6FF2DEC12F0E552E552130EF3CF4F
:1006B000DBFF140EF4CFDBFF060EDB5004E0130E5D
:1006C000D0DB01E20EDB55EC07F002E2130EDBDAC1
:1006D000AFDB05E0040EC5DB02E2050ED4DA030E43
:1006E000DBB005D0A2DA01E07DD2080EDB6A090E8C
:1006F000DB6A110EDBCFE9FF120EDBCFEAFFEFCF93
:10070000DFFFDF5014E0D7DB12E2E4DB03E1151C6E
:1007100001E168D267DB01E3DB2A090EDB2A110E57
:10072000DB2ADBCFE9FF120EE8E3DB2AE6D77DDA2E
:1007300001E15ED257D2030EDB8E070EDB0410E11F
:1007400095DB040E5ADB0A0EEECFDBFF0B0EEECF6D
:10075000DBFF0C0EEECFDBFF0D0EEECFDBFF6CD020
:10076000070EDB5003082CE1030EDBAE0DD0B2DA2E
:10077000020E76DAEFCF14F0156A166A176A14AE15
:1007800039D01568166835D0F70EDBCF15F0F80EA6
:10079000DBCF16F0020E155E000E165AF70E15C0CE
:1007A000DBFFF80E16C0DBFF15C0E9FF16C0EAFF3D
:1007B000EFCF14F00A0E14C0DBFF0B0EDB6A38D04B
:1007C000070EDB50020809E1030EDBAE04D059DB53
:1007D00016AE10D00ED055DB0DD0030EDBAE12D00E
:1007E00079DA020E3DDAF9DA166A176A15AE02D026
:1007F00016681768E2DA0C0E16C0DBFF0D0E17C084
:10080000DBFF1AD0F70EDBCF16F0F80EDBCF17F0B8
:10081000020E165E000E175AF70E16C0DBFFF80E1A
:1008200017C0DBFF16C0E9FF17C0EAFFD6DAC5DA4A
:100830000C0EDB6A0D0EDB6A060EDB5005E1010EC5
:10084000F36E050EF3CFDBFF150EDB6A160EDB6AC7
:10085000D950370F146E000EDA20156E390E14C001
:10086000DBFF3A0E15C0DBFF380EDB6A080EDB6AD1
:100870000A0EAEDADF50780A12E0200A10E0280AE9
:100880000CE0200A0AE03F0A06E00D0A02E0200A16
:1008900008E1020E05D0080E03D0080EDF26100E68
:1008A00097DA030EDBBE02D0DB92DB94DB50800BC9
:1008B00024E08ADAD890030EEB50000A08E6000E16
:1008C000EE5C000EEE58000EEE58000EEE5815E2EB
:1008D00013DA09680A680B680C68F5EC11F00A0E67
:1008E00000C0DBFF0B0E01C0DBFF0C0E02C0DBFF04
:1008F0000D0E03C0DBFF2D0E08D0030EDBA202D0CD
:100900002B0E03D0DBA408D0200EF36E170EF3CF0E
:10091000DBFF150EDB2A02D0170EDB6A050EDB505B
:1009200003E1B7D901E189D01E0E146E260E156EB3
:10093000000E166E070EDBCF17F0186A196A1A6AD6
:1009400017C009F018C00AF019C00BF01AC00CF05B
:10095000D3D960EC12F014500024F36E155001202E
:10096000F46E16500220F86EF4CFF7FFF3CFF6FFC7
:100970000800090EF5CFDBFF580EDF5C0FE1610EBA
:10098000F36E090E7BD90AE3200E146E090EDBCF3D
:10099000E7FF1450E75E090EE7CFDBFF070EDBCF62
:1009A00014F0156A166A176A0FDA14C009F015C038
:1009B0000AF016C00BF017C00CF0EECF04F0EECF2B
:1009C00005F0EECF06F0EFCF07F060EC12F007C0B5
:1009D000EDFF06C0EDFF05C0EDFF04C0EFFF390ECF
:1009E000DBCFE9FFDB063A0EDBCFEAFF01E2DB06F5
:1009F000090EDBCFEFFF150EDB2A4BD995E1030E75
:100A0000DBA61DD06F0EDF5C06E1C1D918E3150E21
:100A1000DB285BDA14D0780EDF5C09E0580EDF5C6F
:100A200006E0620EDF5C03E0420EDF5C08E1020ECE
:100A3000F36E160EF3CFDBFF02D0150EDB6A030E4A
:100A4000DB50100B0EE0040EDBCF14F0050EDB5074
:100A5000D880145406E2060EDB5003E1040EDB508E
:100A600034DA95D90AE2050EDBCFE7FF150EDB502D
:100A7000E75E050EE7CFDBFF02D0050EDB6A040E52
:100A8000DBCF14F0160E45D9D880145414E2160E9C
:100A9000DBCFE6FF150EDBCFE6FF040EDBCFE6FF74
:100AA000050EDB50E552E75CE552D880E754E5528D
:100AB000D880E7545FD9030EDB50010B0BE1080E21
:100AC000DB5008E0B2D801E08DD0080EDB50BED874
:100AD000080EDB6A170EDB5007E088D9170EF1D934
:100AE00003E1151C01E17ED0160EDB5016E07ED925
:100AF000300EE66E9FD802E1151C74E077D9DFCF87
:100B0000E6FFB3EC11F0E552E552E552F4CF15F0F3
:100B10000001F31C02E1151C65E0050EDBCF14F0AB
:100B2000160EDB50D880145409E2050EDBCFE7FF28
:100B3000160EDB50E75E050EE7CFDBFF300EE66EEC
:100B4000050ECBD94FE1390EDB2ADBCFE9FF3A0E98
:100B500001E3DB2ADBCFEAFF090EEFCFDBFFDB503F
:100B60000EE044D9090EADD902E1151C3BE0390E67
:100B7000DB2ADBCFE9FF3A0EEDE3DB2AEBD755D8D2
:100B800031E1160EDBCFE6FF080EC3D8E552E724AD
:100B90005DD82ED0070EDB50030A1CE0010A14E0DA
:100BA000030A07E07BD9DBCFEEFF020EDBCFEDFFC0
:100BB0001FD0F5D8196A17AE02D0186819682CD85A
:100BC000BCD819C0EEFF14D0EAD817BE186824D8D4
:100BD000B4D80ED063D9DBCFEFFF0AD07BD905E1C3
:100BE000151C03E1F368F46810D0FCD801E3DB2A9C
:100BF00079D997EF01F0010EDBCF14F0020EDBCFB5
:100C000015F014C0F3FF15C0F4FF3B0EE15C02E2E7
:100C1000E16AE552E16ECBD029D9020EFDEF06F074
:100C200061D90800F550DF6E1200200EE66E080E46
:100C30006DEF07F0B3EC11F0E552E552E552F3CF5A
:100C400014F0F4CF15F00001F31C1200146E156AB5
:100C5000D950010F4DD91450EE261550ED22120037
:100C6000185E000E195AF70E18C0DBFFF80E19C0F7
:100C7000DBFF18C0E9FF19C0EAFF1200DBCFF4FF69
:100C8000F350F45C1200DB50E76E040EE7CFDBFF9D
:100C900012000A0EDBCF14F00B0EDBCF15F00C0E9A
:100CA000DBCF16F00D0EDBCF17F014501510161019
:100CB00017101200130EEECFDBFF140EEDCFDBFF8B
:100CC000130EDBCF14F0140EDBCF15F00001800EF5
:100CD00015141200F70EDBCF18F0F80EDBCF19F069
:100CE0001200050EDB50E66ED950130F01D9E55204
:100CF000E750EE6EED6A12000A0EDBCF04F00B0E29
:100D0000DBCF05F00C0EDBCF06F00D0EDBCF07F0CE
:100D10001200DBCFE6FF150EDBCFE6FF050EDB5042
:100D2000E552E724E552E7241200DB50CED8010E4D
:100D3000F36E060EF3CFDBFF1200EE50EFCFEAFFAB
:100D4000E96E16C0EEFF17C0EEFF18C0EEFF1200EE
:100D5000D9CFE6FFDACFE6FFE1CFD9FFE2CFDAFF66
:100D60001200DFCFE6FFE66AB3EC12F0E552E5527F
:100D7000F3501200E76E080EE7CFDBFF1200EECF54
:100D800014F0EECF15F0EFCF16F0176A1200050E33
:100D9000DBCF14F0150EDB50D88014541200010E76
:100DA000DBCF16F0020EDBCF17F0186A1200E55207
:100DB000E5CFDAFFE7CFD9FF12000A0E14C0DBFF40
:100DC0000B0E15C0DBFF1200D9500A0F78EF07F0A9
:100DD000F36E070EF3CFDBFF1200EECF14F0EFCF70
:100DE00015F01200010EDB2A020E1200FC0EDBCF02
:100DF000E6FFFD0EDBCFE6FF1200145E000E155A73
:100E0000F70E14C0DBFFF80E15C0DBFF14C0E9FFBE
:100E100015C0EAFF1200DA20EA6EEF2AEECFF6FFE5
:100E2000000EEF22EECFF7FFEF22EECFF8FF120019
:100E3000040EDBCFE6FF130EDB50E552E75C9ADFD2
:100E4000DB5004DF060EDB501200090EDB500A0DEA
:100E5000F350DF24D00FE76E090EE7CFDBFF10EF72
:100E600006F0DB50F36E050E3EEF06F0F70EDBCF1B
:100E700014F0F80EDBCF15F01200DFCFE6FF1AEF0B
:100E800006F028DF030EECDEBFEF06F06CEC01F09D
:100E9000E552E552E552E55200091200BDDEEE5082
:100EA000EFCFEAFFE96E010E1200130EDB50F36E76
:100EB000040E3EEF06F0040EDB50F36E090E3EEF1B
:100EC00006F0DBCFE6FF1AEF06F0E76E050EE7CF80
:100ED000DBFF12008BDF3DEF07F0DBCFE6FF86DFA5
:100EE00046EF07F0D950F90FE96EFF0E0BEF07F050
:0A0EF000E96E000EDA20EA6E12002F
:060EFA00F0DA080EE1260B
:100F000088DA0A6A0B6A960E0C6E430E0D6E14C0D8
:100F100005F0BDDA4BEC0BF005C0DEFF06C0DEFFCE
:100F200007C0DEFF08C0DDFFDD52DD52F90EDBCF6A
:100F3000E6FFFA0EB3DAF3CF18F0F4CF19F0F3CFDF
:100F400006F0F4CF07F0A1EC0AF0CDDA7FDA58D83A
:100F5000E552E552E552E552040E04C0DBFF050EF2
:100F600005C0DBFF060E06C0DBFF070E07C0DBFF78
:100F7000D9CFE9FFDACFEAFFEECF1EF0EECF1FF0B8
:100F8000EECF20F0EFCF21F0040EDBCF22F0050EE4
:100F9000DBCF23F0060EDBCF24F0070EDBCF25F0EE
:100FA00022C00AF023C00BF024C00CF025C00DF0C5
:100FB0001EC005F01FC006F020C007F021C008F0D9
:100FC000B5EC0AF04CDA42DA2AD8E552E552E5529D
:100FD000E55204C016F005C017F006C018F007C0AF
:100FE00019F004C005F017C006F018C007F019C0CA
:100FF00008F01CDA080EE15C02E2E16AE55204D274
:10100000F6D9030EDF5C06E24FDA080EF626250E4F
:1010100056D9F7D7D5D902E2E16AE552F5D1E7D939
:10102000090EDF5C06E240DA140EF626250E47D9DB
:10103000F7D7C6D902E2E16AE552E6D14FDA040EEB
:10104000E126DE6ADE6A800EDE6E3F0EDD6EDD5268
:10105000DD52FA0EDB5000080AE2DBD9D9CFE9FFF6
:101060002ADA9EEC0BF048DAFA0EDB06F2D7DECF76
:1010700004F0DECF05F0DECF06F0DDCF07F0DD5265
:10108000DD52040EE15C02E2E16AE552BDD126DAEE
:10109000FD0EDBCF1EF0FE0EDBCF1FF0900E1E5EAE
:1010A000010E1F5A1EC006F01FC007F0A1EC0AF087
:1010B000D6D90A6A0B6A9C0E0C6E410E0D6E4BEC73
:1010C0000BF005C016F006C017F007C018F008C0F6
:1010D00019F00A6A0B6A400E0C6E0D6EB4EC0AF041
:1010E000A5D9E552E7CFD9FF1200F8D9360EE1268F
:1010F0001E0EDB6A1F0EDB6A300EDB6A310EDB6A06
:10110000320EDB6A330EDB6A340EDB6A350EDB6AC5
:101110008550100B01E1CDD08550080B01E1C9D0FD
:10112000E66A82EC0FF0E552200E04C0DBFF210ED0
:1011300005C0DBFF220E06C0DBFF230E07C0DBFF6E
:10114000010E7FD9240E04C0DBFF250E05C0DBFF96
:10115000260E06C0DBFF270E07C0DBFF020E71D98B
:10116000280E04C0DBFF290E05C0DBFF2A0E06C0D7
:10117000DBFF2B0E07C0DBFF030E63D92C0E04C070
:10118000DBFF2D0E05C0DBFF2E0E06C0DBFF2F0E92
:1011900007C0DBFF040E55D9300E04C0DBFF310E53
:1011A00005C0DBFF320E06C0DBFF330E07C0DBFFDE
:1011B000050E47D904C014F005C015F006C016F09E
:1011C00007C017F004C005F062D90BEC0CF0340E28
:1011D00006C0DBFF350E07C0DBFF340EDBCFE6FFBA
:1011E000350E5CD9140EF3CFDBFF150EDFD8200FC0
:1011F000B9D8160EF3CFDBFF170ED8D8240FB2D80C
:10120000180EF3CFDBFF190ED1D8280FABD81A0E6A
:10121000F3CFDBFF1B0ECAD82C0FA4D81C0EF3CFC4
:10122000DBFF1D0EC3D8300F9DD81E0EF3CFDBFFA2
:101230001F0EF4CFDBFF010EE66E23D91A0EDBCFB3
:10124000E6FF1B0EDBCFE6FF140EDBCFE6FF150E2D
:10125000DBCFE6FF780E146E200E8ED8010EE66E00
:10126000020E0FD91C0EDBCFE6FF1D0EDBCFE6FF13
:10127000160EDBCFE6FF170EDBCFE6FF630E146E14
:10128000200E7AD8010EE66E030EFBD81E0EDBCFC1
:10129000E6FF1F0EDBCFE6FF180EDBCFE6FF190ED1
:1012A000DBCFE6FF4E0E146E200E66D8E1D8E0D8F4
:1012B0002FD7360EE15C02E2E16AE552A5D0F722B3
:1012C0000900F5CF18F00900F5CF19F00900F5CFA6
:1012D0001AF00800F5CF1BF018C0E6FF19C0E6FFB2
:1012E0001AC0E6FF1BC0E6FFDFCFE6FFD950FB0FB9
:1012F000E96EFF0EDA20EA6E08D9A0DE206E050E38
:10130000E15E2050E552E7CF1BF0E552E7CF1AF03F
:10131000E552E7CF19F0E552E7CF18F004C01CF012
:1013200005C01DF006C01EF007C01FF004C00AF083
:1013300005C00BF006C00CF007C00DF018C005F09A
:1013400019C006F01AC007F01BC008F09EEC0BF0A5
:10135000CAD8D950010FE96EAED8B5EC0AF0CCD896
:10136000DF2A1200E96EDACFEAFFCFD8C6DD146EAD
:10137000060EE15E14501200156E166A14C0E6FFE8
:10138000E66E16C0E6FFD9CFE6FFDACFE6FF0EEC39
:1013900011F0176E090EE15E1750D9CFE6FFDACFD4
:1013A000E6FF49EC0EF0E552E5521200F4CFDBFF08
:1013B000340EDBCFE6FF350EDBCFE6FFD95012004F
:1013C000010EDBCF14F0020EDBCF15F0030EDBCFE6
:1013D00016F0040EDBCF17F014C004F015C005F0B2
:1013E00016C006F017C007F0050EE15C120076D8B3
:1013F000050EE126010EDB6A020EDB6A030EDB6AD4
:10140000040EDB6ADF6A1200E16EE552E7CFD9FF16
:101410001200FB0EDBCF14F0FC0EDBCF15F0FD0E3F
:10142000DBCF16F0FE0EDBCF17F012000BEC0CF04A
:1014300006C014F007C015F006C0F3FF07C0F4FFA4
:101440001200E66E82EC0FF0E552120005C0E6FFD6
:1014500006C0E6FF07C0E6FF08C0E6FF120005C0B1
:101460001AF006C01BF007C01CF008C01DF01200E7
:10147000E6689CEC12F0E552E6689CEC12F0E5524E
:101480001200E66E61EC0EF0E552E552120015C056
:1014900006F016C007F017C008F01200DBCFE6FF19
:1014A000F6DDE552E5521200DF50040DF3CFF6FFF2
:1014B000F4CFF7FF1200DACFEAFFEECF05F0EECF60
:1014C00006F0EECF07F0EFCF08F014C00AF015C019
:1014D0000BF016C00CF017C00DF01200D9CFE6FFCC
:1014E000E1CFD9FF120005C014F006C015F007C007
:1014F00016F008C017F0120008C0EDFF07C0EDFF9E
:1015000006C0EDFF05C0EFFF1200EECFE6FFEECF05
:0C151000E6FFEECFE6FFEFCFE6FF120093
:04151C000F9E05D049
:101520000F9E07AE02D0076C0F8E07C001F0006A55
:10153000136A126A860E026E036A56EF0CF00F9E53
:1015400008D00F9E07AE05D0066C071EE86A07227A
:101550000F8E07C001F006C000F0136A126A8E0EEB
:10156000026E036A56EF0CF00D7E0F6A92EC0CF0DF
:10157000AAEC0CF00FB63AEF0CF00FA20AD00FAAAB
:1015800003D00FBE3AEF0CF00FA446EF0CF043EF80
:101590000CF00FAA05D00FAC46EF0CF043EF0CF0A7
:1015A0000FA00AD00FA808D00FBE04D00FA402D0FD
:1015B0004FEF0CF053EF0CF0126A036A0D50085C09
:1015C000116E10E305C013F006C000F007C001F073
:1015D00008C010F00AC005F00BC006F00CC007F000
:1015E0000F3A09D00AC013F00BC000F00CC001F094
:1015F0000DC010F0116C0F9E0FBC0F8E10C002F0CA
:101600000FB082EF0CF01A0E116082EF0CF0026A3C
:10161000086A0FA408D0056C061E071E081EE86A9B
:101620000622072208220FAC08D0136C001E011EF0
:10163000021EE86A002201220222046A115207E017
:1016400008340732063205320432112EF9D705501C
:10165000132606500022075001220850022204C01F
:1016600012F00F9E02AE0BD0126C131E001E011E54
:10167000021EE86A13220022012202220F8E02A01B
:1016800006D0D8800132003213321232102A10C034
:1016900002F056EF0CF00F6A92EC0CF0AAEC0CF092
:1016A0000FB63AEF0CF00FA205D00FBA3AEF0CF0DC
:1016B00041EF0CF00FBA4DEF0CF00FA005D00FB8B2
:1016C0003AEF0CF04DEF0CF00FB841EF0CF0036A5D
:1016D0007F0E0824026EE86A03220D50025EE86A5B
:1016E000035A1A0E106E086A126A136A006A016AB7
:1016F0000A50055E0B50065A0C50075A000E085A45
:1017000009E70A5005260B5006220C500722000E4E
:10171000082201D0128AD8900536063607360836D8
:10172000D8901236133600360136102EE1D7075006
:1017300006100510D8A4128A56EF0CF00F6A92EC2E
:101740000CF0AAEC0CF00FB63AEF0CF00FA205D09B
:101750000FB83AEF0CF041EF0CF00FAA05D00FB024
:101760003AEF0CF041EF0CF00FB002D00FA802D00E
:101770004DEF0CF0036A0D500824026EE86A032254
:101780007E0E025EE86A035A126A136A006A016AF0
:101790000C500702F4CF01F0F3CF00F00B5007021A
:1017A000F3501326F4500022000E01220C500602C2
:1017B000F3501326F4500022000E01220A500702B3
:1017C000F3501226F4501322000E002201220B5077
:1017D0000602F3501226F4501322000E00220122BA
:1017E0000C500502F3501226F4501322000E002272
:1017F00001220A500602F4501226000E1322002283
:1018000001220B500502F4501226000E1322002272
:10181000012256EF0CF00F6A92EC0CF00FB615EFA8
:101820000CF00FA20ED00FB405D07F0E076EFF0E86
:10183000066E1FD0800E076E066A1BD0076A066A06
:1018400018D00FB0FBD78F0E0860EDD77E0E08645E
:10185000F5D78E0E085C05E0D89007320632082ACC
:10186000F8D70FA406D0066C071EE86A072207AE59
:10187000E5D712007F0E086EFF0E076E066E056E2E
:1018800012007F0E0FBEFF0E086E02D07F0E086E94
:10189000800E076E066A056AF3D70FAE04D0800E7D
:1018A000086E076AF7D7086A076AF4D70150001074
:1018B00013101210F8E003BEF0D701BE0CD0025096
:1018C0000310EBE0D89012361336003601360206CC
:1018D000D8A00306F2D70350D4E10228D2E012AE1A
:1018E00011D07F0E121402E113A00CD0132AE86A63
:1018F0000022012207E3D880013200321332022A8B
:101900000228BFE00250C9E013C005F000C006F095
:101910000134076E0230086E0732089E0FBE088E33
:1019200040EF0CF00736083602E30F840F7E06E125
:101930000F80086A076A066A056A1200082803E031
:10194000D88007321200D890073202E10F821200CD
:101950000F8612000C360D3602E30F8C0F7E06E167
:101960000F880D6A0C6A0B6A0A6A12000D2803E0E0
:10197000D8800C321200D8900C32EAE10F8A1200A3
:1019800007C013F006C012F006500B02F4CF05F0AA
:10199000F3CF04F007500C02F4CF07F0F3CF06F0BA
:1019A0000B02F3500526F4500622E86A0722125073
:1019B0000C02F3500526F4500622E86A07220CAE0A
:1019C000E6EF0CF01250065E1350075A13AE000CEF
:0A19D0000B50065E0C50075A000C85
:0619DA0056D91D0EE126A6
:1019E000010EF36E140EF3CFDBFF0C0EF36E150E2B
:1019F000F3CFDBFF120EF36E160EF3CFDBFF120EEA
:101A0000F36E170EF3CFDBFF0C0EF36E180EF3CF51
:101A1000DBFF190EDB6A1A0EDB6A1B0EDB6A1C0E7B
:101A2000DB6A0F01256B246B236B1E0E976E92965B
:101A3000929492929290929A94929490E6689CECEE
:101A400012F0E552E6689CEC12F0E55293EC0EF0D1
:101A500076EC0FF0D950150FE66E000EDA20E66E28
:101A6000010EE66E7FEC0EF0E552E552E552010EF6
:101A7000E66E020EE66E61EC0EF0E552E5529C0E4B
:101A8000E66E200EE66E55EC0EF0E552E552140EB1
:101A9000DB50050A1AE0010A12E0070A0BE0010A0E
:101AA00005E0030A17E18986899402D08984899622
:101AB000899203D0898289968994899004D08980FB
:101AC000899689948992899A05D0898A8996899478
:101AD00089928990010EE66EE66E61EC0EF0E55299
:101AE000E552140EDBCFE6FFE66A8D0E146E200E73
:101AF000156E166A14C0E6FFE66E16C0E6FFD9CF73
:101B0000E6FFDACFE6FF0EEC11F0176E070EE15E8E
:101B10001750D9CFE6FFDACFE6FF49EC0EF0E552D9
:101B2000E55285B2FED7140EDB50050807E1010E21
:101B3000F36E140EF3CFDBFF010E02D0140EDB2880
:101B4000E76E140EE7CFDBFFE6689CEC12F09ED741
:101B500093809382D09EF28EF29CF19CF18AF29255
:101B6000F298F090F08612008FD8FD0EDB5033E033
:101B70000A0A29E01E0A23E00A0A1DE0360A19E0D3
:101B80001A0A15E00E0A11E07A0A0DE0160A07E0BB
:101B90000A0A03E03E0A22E01ED0240E01D0340ED1
:101BA0006ED8080E13D0400E07D0480E05D0540E44
:101BB00007D05C0E05D06A0E62D8100E07D0740EE6
:101BC0005ED8180E03D0800E5AD8200EE66E01ECB7
:101BD00013F0E55203D0050E52D810D0FE0EDB04F0
:101BE00005E18B82140E4BD88B9208D0FE0EDB5091
:101BF000020804E18B80140E42D88B90E552E7CFA7
:101C0000D9FF120041D8190EF36EFD0EDBCFF4FFA1
:101C1000F350F45C04E32DD8D880145402E2000E93
:101C200024D027D8FB0FD880145402E2320E1DD0E6
:101C300020D8F60FD880145402E23C0E16D019D8E2
:101C4000F10FD880145402E2460E0FD012D8EC0FD8
:101C5000D880145402E2500E08D00BD8E70FD88079
:101C6000145402E25A0E01D0640EE552E7CFD9FFB8
:101C70001200FE0EDBCF14F0FD0EDB501200E66EFC
:101C8000C5EC12F0E5521200D9CFE6FFE1CFD9FF43
:021C9000120040
:0E1C9200E8D8E652DF6ADF50FED805E0DF50EA
:101CA000DF2AFAD804D9F8D7D2D0DCD8E652DF6AD6
:101CB000DF50E4D805E0DF50DF2AE0D8F8D8F8D7C5
:101CC000C6D0F9D8030A02E0070A0AE1FD0EDBCF0D
:101CD000E6FFFE0EDB50FD0F400DF350140F07D052
:101CE000FD0EDBCFE6FFFE0EDB04400DF350E552A8
:101CF000E724FF0FDF6E800EDF10D5D8A8D0DBD829
:101D0000080DF3504009CFD8DF6A080EDF5C0AE205
:101D1000DF50E76EFC0EDBCFE9FFFD0ED1D8C7D850
:101D2000DF2AF3D794D09ED8E652F00E986E9694A0
:101D3000969296909898DF6A060EDF5C04E297D838
:101D4000EF6ADF2AF9D78D948D92020EE66E27D8BE
:101D5000E552E66A140EE66E200E7ED8010EE66E9F
:101D6000080EE66E200E78D88F88010EE66E040EFF
:101D7000B5D8E66A020EB2D8E66A010EAFD8010EF7
:101D8000E66E020EE66E040E67D8E66A010EE66E97
:101D9000040E62D8010E87D8020E85D858D062D8BA
:101DA000F00E8F16FE0EDB500F0B8F129BD8E552F4
:101DB0008D8098D8E5528D9095D849D053D8FE0E95
:101DC000DB380F0BE66EEBDFE552FE0EDBCFE6FFF6
:101DD000E6DF3DD047D88D947BD8E552040EE66E01
:101DE0009CEC12F034D03ED88D8472D830D063D8B9
:101DF000800A14E0C00A10E0600A0CE0300A08E033
:101E0000180A04E00C0A0CE1DF6A0AD0010E07D0C0
:101E1000020E05D0030E03D0040E01D0050EDF6EB6
:101E2000FC0EDB5007E1FD0EDB1C146E20D81450B5
:101E3000EF1604D01CD8FD0EDB50EF12FE0EDBCFE8
:101E4000E6FF15D8EF50E552E7102DD800D0E55247
:101E5000E552E7CFD9FF1200E66EC9DFE552E55241
:101E6000E5521200D9CFE6FFE1CFD9FF1200DF50D3
:101E7000EA6A670FE96E000EEA221200E76EFD0EB5
:101E8000DBCFF6FFFE0EDBCFF7FFE750F626000EA6
:101E9000F7220800F5501200E76EFD0EDBCFE9FFD8
:101EA000FE0E60EF0FF0E66E95DFE5521200E66E73
:101EB0009ADFE5521200D6DFE652FE0EDB5012002A
:101EC000DBCFEAFFE750E926000EEA22EF501200CE
:101ED0008D92FE0EDBCFE6FFDEEF0EF0E66E080E13
:0C1EE0002CEF0FF0040EE66E01EF13F083
:041EEC00949A94969A
:101EF000C69AF00EC6140209C66EC698C78CC78E65
:101F0000C68A1200D9CFE6FFE1CFD9FF050EE12640
:101F1000DE6ADE6ADE6ADD6ADD52DD5295948C94FB
:101F2000010EC96EC7A0FED7FE0EDB38F00B80098C
:101F3000C96EC7A0FED7030EC914E76E040EE7CF23
:101F4000DBFFDBCF14F014C007F08EEC0AF06BD887
:101F5000D9CFE9FFDACFEAFFEECF14F0EECF15F0DC
:101F6000EECF16F0EFCF17F00A6A0B6A800E0C6EF8
:101F7000430E0D6E14C005F015C006F016C007F034
:101F800017C008F09EEC0BF04ED8C96AC7A0FED768
:101F9000040EC9CFDBFFDBCF18F018C007F08EECC2
:101FA0000AF005C014F006C015F007C016F008C00E
:101FB00017F026D817C00DF0B5EC0AF03FD88C8486
:101FC00014683F0E156E4E0E166E400E176E18D822
:101FD0000D6E9EEC0BF032D8DECF04F0DECF05F0B4
:101FE000DECF06F0DDCF07F0DD52DD52050EE15CFD
:101FF00002E2E16AE552E16EE552E7CFD9FF120055
:10200000D9CFE9FFDACFEAFFEECF05F0EECF06F049
:10201000EECF07F0EFCF08F014C00AF015C00BF0B8
:1020200016C00CF0120005C0DEFF06C0DEFF07C0C0
:10203000DEFF08C0DDFFDD52DD52120008C0EDFFFB
:0E20400007C0EDFF06C0EDFF05C0EFFF120068
:02204E0054320A
:102050003A202533640143202054353A2025336447
:1020600001430054313A2025336401432020543485
:102070003A2025336401430054303A20253364016B
:1020800043202054333A2025336401430052656CC9
:10209000617920256420746573742E005072657315
:1020A00073204F4B20746F207475726E204F4E2E2C
:1020B0000048656174657220746573742066696E8A
:1020C00069736865642E0048656174657220746583
:1020D0006D703A20253264014320202000506F7734
:1020E0006572206C6576656C3A2025336425252061
:1020F00020200050726F636573732073746167658D
:102100003A2025642020202000200002004F707417
:10211000696F6E7320202020202020202020202086
:102120000041626F75742020202020202020202074
:102130002020202000496E666F20202020202020B3
:102140002020202020202020005374617274205011
:0D215000726F636573732020202020200033
:02215E00D9CFD7
:10216000E6FFE1CFD9FF020EE126DF6A040E0F0180
:10217000125D01E1126B010EDB6A040EF36E010EBB
:10218000DBCFF4FFF350F45C3AE2010EE66EDB289D
:10219000E66E61EC0EF0E552E552010EDB500F01E8
:1021A0001225030805E2010EDB501225FC0F03D0B7
:1021B000010EDB501225DF6E010EDB5004E10B0E29
:1021C000E66E210E03D0090EE66E210EE66E55EC8A
:1021D0000EF0E552E552EA6ADF34FE0BEA36E96EAC
:1021E0000A0EE9260F0EEA22EECFE6FFEFCFE6FF5A
:1021F00055EC0EF0E552E552010EDB2ABED70F0179
:102200001251122B146E020EE15C02E2E16AE552F9
:0C221000E16E1450E552E7CFD9FF120038
:04221C00D9CFE6FF31
:10222000DACFE6FFE1CFD9FFE2CFDAFFE652E6529E
:10223000E652E652D950F90F146EFF0EDA20156EF1
:10224000020E14C0DBFF030E15C0DBFF020EDBCF56
:10225000E6FF030EDBCFE6FFF90EDBCFE6FFFA0E5B
:10226000DBCFE6FFFB0EDBCFE6FFD950FC0FE66EBF
:10227000FF0EDA20E66E82EC01F0146E070EE15CD0
:1022800002E2E16AE552E16E1450F3CFDEFFF4CFD3
:10229000DDFFFC0EDBCFE9FFFD0EDBCFEAFFEF6ACF
:1022A000DECF14F0DDCF15F014C0F3FF15C0F4FF3E
:1022B000040EE15C02E2E16AE552E16EE552E5CF2F
:0822C000DAFFE7CFD9FF12009D
:0822C800BE0EF66E020EF76E69
:1022D000000EF86E0F010900F550056F0900F5506A
:1022E000066F03E1056701D03DD00900F550006F8E
:1022F0000900F550016F0900F550026F090009004F
:10230000F550E96E0900F550EA6E09000900090070
:10231000F550036F0900F550046F09000900F6CF6E
:1023200007FFF7CF08FFF8CF09FF00CFF6FF01CF77
:10233000F7FF02CFF8FF0F01035302E1045307E058
:102340000900F550EE6E0307F8E20407F9D707CF4E
:10235000F6FF08CFF7FF09CFF8FF0F010507000EC2
:06236000065BBFD712006E
:0A236600D9CFE6FFDACFE6FFE1CFA2
:10237000D9FFE2CFDAFFFB0EDBCF14F0FC0EDBCF90
:1023800015F00001800E15141AE1FB0EDBCFE9FFFA
:10239000FC0EDBCFEAFFEECFF3FFEDCFF4FFEE2A2A
:1023A000000EEF22F3CFE9FFF4CFEAFFFD0EDBCF03
:1023B000EFFFEF50156AF36E15C0F4FF10D0FB0E5F
:1023C000DB50FE0806E1FD0EDBCFE6FFF3EC12F07A
:1023D00005D0FD0EDBCFE6FF03EC00F0E552E55241
:0A23E000E5CFDAFFE7CFD9FF1200C6
:0623EA0004500902F3CFCC
:1023F00000F0F4CF01F00A02F3500126000EF420A1
:10240000026E04500B02F3500226000EF420036EFD
:1024100004500C02F350032605500902F350012624
:10242000F4500222000E032205500A02F350022645
:10243000F450032205500B02F35003260650090204
:10244000F3500226F450032206500A02F3500326EA
:0A24500007500902F35003261200A2
:06245A00FE0EE3CFE9FFD6
:10246000FF0EE3CFEAFFF36AF46AEE5203E0F34AA9
:10247000F42AFBD71200FF0EE3CFF8FFE552FF0E60
:10248000E3CFF7FFE552FF0EE3CFF6FFE552E66A32
:10249000E66AE66A0900F55209E0FD0EE32A05E165
:1024A000FE0EE32A02E1FF0EE32AF4D7FD0EE3CF8E
:1024B00005F0FE0EE3CF06F0FF0EE3CF07F01200AB
:1024C000036A026A016A006A200EE76ED890043639
:1024D0000536063607360036013602360336095011
:1024E000005C0A5001580B5002580C50035809E385
:1024F0000950005E0A50015A0B50025A0C50035A00
:08250000042AE72EE4D71200C3
:08250800E02D90BCA06B1F3D0B
:10251000B5FE9637000000001CABC84190F9A03D05
:10252000072980BE1F4CAA3D0E3249BC5873803A21
:08253000A48C38B8BD378635D4
:08253800FF0EE350326EEF0EBE
:1025400001D0F30EE76EE72EA3EF12F00C0E316E02
:10255000E76AE72EA9EF12F0312EA8EF12F0322E23
:06256000A1EF12F01200D1
:0A256600F36AF46AFF0EE124E96E47
:10257000FF0EE220EA6EED6607D02F0EEF6404D066
:0A2580003A0EEF6001D0F32A1200BA
:06258A00FF0EE350326E6B
:10259000480E01D04C0EE76EE72EFED7E76AE72E15
:0A25A000FED7322EF7D7000012001C
:0625AA00160EF36E00EEB8
:1025B00000F00F0E01D81200EA6002D0EE6AFCD7DC
:0A25C000F350E9601200EE6AFCD748
:0625CA001EEE00F02EEEF3
:1025D00000F0F86A0F9C64EC11F018EC13F0EDECCD
:0625E0000CF0FBD7120015
:0A25E600FF0EE350ACBA04D0AF6A58
:1025F000AB8EAC8A949CACA2FED7AD6EF36EF46A3F
:022600001200C6
:0E260200FF0EE350326E1B0E00D001D0200EF2
:0E261000E76EE72EFED7322EFAD700D012006A
:02261E00303159
:0F262000323334353637383961626364656600AA
:02263000120096
:092632004921352121210D21006F
:05263B0003004E6300E6
:02264000000098
:020000040030CA
:0100000015EA
:0100010012EC
:010002007885
:010003007C80
:010005008971
:010006009069
:00000001FF
